{"abi":[{"type":"constructor","inputs":[{"name":"_eggNFTAddress","type":"address","internalType":"address"},{"name":"_eggVaultAddress","type":"address","internalType":"address"}],"stateMutability":"nonpayable"},{"type":"function","name":"MIN_GAME_DURATION","inputs":[],"outputs":[{"name":"","type":"uint256","internalType":"uint256"}],"stateMutability":"view"},{"type":"function","name":"depositEggToVault","inputs":[{"name":"tokenId","type":"uint256","internalType":"uint256"}],"outputs":[],"stateMutability":"nonpayable"},{"type":"function","name":"eggCounter","inputs":[],"outputs":[{"name":"","type":"uint256","internalType":"uint256"}],"stateMutability":"view"},{"type":"function","name":"eggFindThreshold","inputs":[],"outputs":[{"name":"","type":"uint256","internalType":"uint256"}],"stateMutability":"view"},{"type":"function","name":"eggNFT","inputs":[],"outputs":[{"name":"","type":"address","internalType":"contract EggstravaganzaNFT"}],"stateMutability":"view"},{"type":"function","name":"eggVault","inputs":[],"outputs":[{"name":"","type":"address","internalType":"contract EggVault"}],"stateMutability":"view"},{"type":"function","name":"eggsFound","inputs":[{"name":"","type":"address","internalType":"address"}],"outputs":[{"name":"","type":"uint256","internalType":"uint256"}],"stateMutability":"view"},{"type":"function","name":"endGame","inputs":[],"outputs":[],"stateMutability":"nonpayable"},{"type":"function","name":"endTime","inputs":[],"outputs":[{"name":"","type":"uint256","internalType":"uint256"}],"stateMutability":"view"},{"type":"function","name":"gameActive","inputs":[],"outputs":[{"name":"","type":"bool","internalType":"bool"}],"stateMutability":"view"},{"type":"function","name":"getGameStatus","inputs":[],"outputs":[{"name":"","type":"string","internalType":"string"}],"stateMutability":"view"},{"type":"function","name":"getTimeRemaining","inputs":[],"outputs":[{"name":"","type":"uint256","internalType":"uint256"}],"stateMutability":"view"},{"type":"function","name":"owner","inputs":[],"outputs":[{"name":"","type":"address","internalType":"address"}],"stateMutability":"view"},{"type":"function","name":"renounceOwnership","inputs":[],"outputs":[],"stateMutability":"nonpayable"},{"type":"function","name":"searchForEgg","inputs":[],"outputs":[],"stateMutability":"nonpayable"},{"type":"function","name":"setEggFindThreshold","inputs":[{"name":"newThreshold","type":"uint256","internalType":"uint256"}],"outputs":[],"stateMutability":"nonpayable"},{"type":"function","name":"startGame","inputs":[{"name":"duration","type":"uint256","internalType":"uint256"}],"outputs":[],"stateMutability":"nonpayable"},{"type":"function","name":"startTime","inputs":[],"outputs":[{"name":"","type":"uint256","internalType":"uint256"}],"stateMutability":"view"},{"type":"function","name":"transferOwnership","inputs":[{"name":"newOwner","type":"address","internalType":"address"}],"outputs":[],"stateMutability":"nonpayable"},{"type":"event","name":"EggFound","inputs":[{"name":"player","type":"address","indexed":true,"internalType":"address"},{"name":"tokenId","type":"uint256","indexed":false,"internalType":"uint256"},{"name":"totalEggsFound","type":"uint256","indexed":false,"internalType":"uint256"}],"anonymous":false},{"type":"event","name":"GameEnded","inputs":[{"name":"endTime","type":"uint256","indexed":false,"internalType":"uint256"}],"anonymous":false},{"type":"event","name":"GameStarted","inputs":[{"name":"startTime","type":"uint256","indexed":false,"internalType":"uint256"},{"name":"endTime","type":"uint256","indexed":false,"internalType":"uint256"}],"anonymous":false},{"type":"event","name":"OwnershipTransferred","inputs":[{"name":"previousOwner","type":"address","indexed":true,"internalType":"address"},{"name":"newOwner","type":"address","indexed":true,"internalType":"address"}],"anonymous":false},{"type":"error","name":"OwnableInvalidOwner","inputs":[{"name":"owner","type":"address","internalType":"address"}]},{"type":"error","name":"OwnableUnauthorizedAccount","inputs":[{"name":"account","type":"address","internalType":"address"}]}],"bytecode":{"object":"0x60806040526014600755348015610014575f5ffd5b50604051610d58380380610d58833981016040819052610033916101b4565b338061005957604051631e4fbdf760e01b81525f60048201526024015b60405180910390fd5b6100628161014a565b506001600160a01b0382166100b95760405162461bcd60e51b815260206004820152601360248201527f496e76616c6964204e46542061646472657373000000000000000000000000006044820152606401610050565b6001600160a01b03811661010f5760405162461bcd60e51b815260206004820152601560248201527f496e76616c6964207661756c74206164647265737300000000000000000000006044820152606401610050565b60038054610100600160a81b0319166101006001600160a01b0394851602179055600480546001600160a01b031916919092161790556101e5565b5f80546001600160a01b038381166001600160a01b0319831681178455604051919092169283917f8be0079c531659141344cd1fd0a4f28419497f9722a3daafe3b4186f6b6457e09190a35050565b80516001600160a01b03811681146101af575f5ffd5b919050565b5f5f604083850312156101c5575f5ffd5b6101ce83610199565b91506101dc60208401610199565b90509250929050565b610b66806101f25f395ff3fe608060405234801561000f575f5ffd5b506004361061011c575f3560e01c806378e97925116100a9578063d26bbe0e1161006e578063d26bbe0e1461021d578063dac6270d14610226578063e5ed1d591461022e578063f020044f14610241578063f2fde38b1461025e575f5ffd5b806378e97925146101ca5780638da5cb5b146101d35780639dc1f8d8146101e35780639e1b83b1146101f6578063cb823d06146101fe575f5ffd5b8063382396ee116100ef578063382396ee1461017d57806347c553111461019257806364a891c8146101a55780636cbc2ded146101ba578063715018a6146101c2575f5ffd5b8063115e33ae146101205780631f50b7181461013b5780631f8d442a146101445780633197cbb614610174575b5f5ffd5b610128603c81565b6040519081526020015b60405180910390f35b61012860065481565b60035461015c9061010090046001600160a01b031681565b6040516001600160a01b039091168152602001610132565b61012860025481565b610185610271565b60405161013291906109fd565b60045461015c906001600160a01b031681565b6101b86101b3366004610a32565b610353565b005b6101b86104e9565b6101b8610574565b61012860015481565b5f546001600160a01b031661015c565b6101b86101f1366004610a32565b610587565b6101b86105e5565b61012861020c366004610a5d565b60056020525f908152604090205481565b61012860075481565b610128610826565b6101b861023c366004610a32565b610849565b60035461024e9060ff1681565b6040519015158152602001610132565b6101b861026c366004610a5d565b610948565b60035460609060ff1615610326576001544210156102b8575060408051808201909152601481527311d85b59481b9bdd081cdd185c9d1959081e595d60621b602082015290565b60015442101580156102cc57506002544211155b156102fa575060408051808201909152600e81526d47616d652069732061637469766560901b602082015290565b5060408051808201909152601181527011d85b59481d1a5b5948195b185c1cd959607a1b602082015290565b5060408051808201909152601281527147616d65206973206e6f742061637469766560701b602082015290565b6003546040516331a9108f60e11b815260048101839052339161010090046001600160a01b031690636352211e90602401602060405180830381865afa15801561039f573d5f5f3e3d5ffd5b505050506040513d601f19601f820116820180604052508101906103c39190610a7f565b6001600160a01b0316146104165760405162461bcd60e51b81526020600482015260156024820152744e6f74206f776e6572206f6620746869732065676760581b60448201526064015b60405180910390fd5b600354600480546040516323b872dd60e01b815233928101929092526001600160a01b03908116602483015260448201849052610100909204909116906323b872dd906064015f604051808303815f87803b158015610473575f5ffd5b505af1158015610485573d5f5f3e3d5ffd5b5050600480546040516396c7ac0560e01b81529182018590523360248301526001600160a01b031692506396c7ac0591506044015f604051808303815f87803b1580156104d0575f5ffd5b505af11580156104e2573d5f5f3e3d5ffd5b5050505050565b6104f1610982565b60035460ff166105355760405162461bcd60e51b815260206004820152600f60248201526e47616d65206e6f742061637469766560881b604482015260640161040d565b6003805460ff191690556040514281527fce24807f7e4b60b4e641462f13029fa5e5f79075bbc3f8e5cd43ecd19661d7609060200160405180910390a1565b61057c610982565b6105855f6109ae565b565b61058f610982565b60648111156105e05760405162461bcd60e51b815260206004820152601860248201527f5468726573686f6c64206d757374206265203c3d203130300000000000000000604482015260640161040d565b600755565b60035460ff166106295760405162461bcd60e51b815260206004820152600f60248201526e47616d65206e6f742061637469766560881b604482015260640161040d565b6001544210156106725760405162461bcd60e51b815260206004820152601460248201527311d85b59481b9bdd081cdd185c9d1959081e595d60621b604482015260640161040d565b6002544211156106b15760405162461bcd60e51b815260206004820152600a60248201526911d85b5948195b99195960b21b604482015260640161040d565b5f60644244336006546040516020016106f59493929190938452602084019290925260601b6bffffffffffffffffffffffff19166040830152605482015260740190565b604051602081830303815290604052805190602001205f1c6107179190610a9a565b90506007548110156108235760068054905f61073283610acd565b9091555050335f908152600560205260408120805460019290610756908490610ae5565b9091555050600354600654604051637575229160e01b815233600482015260248101919091526101009091046001600160a01b0316906375752291906044016020604051808303815f875af11580156107b1573d5f5f3e3d5ffd5b505050506040513d601f19601f820116820180604052508101906107d59190610afe565b50600654335f818152600560209081526040918290205482519485529084015290917fdfda8b61c9238e56c64cc0d2460efcfe0d8fde76709b2e069b5aad7706209ddb910160405180910390a25b50565b5f600254421015610844574260025461083f9190610b1d565b905090565b505f90565b610851610982565b60035460ff161561089a5760405162461bcd60e51b815260206004820152601360248201527247616d6520616c72656164792061637469766560681b604482015260640161040d565b603c8110156108e05760405162461bcd60e51b8152602060048201526012602482015271111d5c985d1a5bdb881d1bdbc81cda1bdc9d60721b604482015260640161040d565b4260018190556108f1908290610ae5565b60028190556003805460ff19166001908117909155546040517fa2dfaa3573b86004ec9d4d4abe5068d942579c59da4da8cd0d9e45e71a393bc19261093d928252602082015260400190565b60405180910390a150565b610950610982565b6001600160a01b03811661097957604051631e4fbdf760e01b81525f600482015260240161040d565b610823816109ae565b5f546001600160a01b031633146105855760405163118cdaa760e01b815233600482015260240161040d565b5f80546001600160a01b038381166001600160a01b0319831681178455604051919092169283917f8be0079c531659141344cd1fd0a4f28419497f9722a3daafe3b4186f6b6457e09190a35050565b602081525f82518060208401528060208501604085015e5f604082850101526040601f19601f83011684010191505092915050565b5f60208284031215610a42575f5ffd5b5035919050565b6001600160a01b0381168114610823575f5ffd5b5f60208284031215610a6d575f5ffd5b8135610a7881610a49565b9392505050565b5f60208284031215610a8f575f5ffd5b8151610a7881610a49565b5f82610ab457634e487b7160e01b5f52601260045260245ffd5b500690565b634e487b7160e01b5f52601160045260245ffd5b5f60018201610ade57610ade610ab9565b5060010190565b80820180821115610af857610af8610ab9565b92915050565b5f60208284031215610b0e575f5ffd5b81518015158114610a78575f5ffd5b81810381811115610af857610af8610ab956fea26469706673582212207a0997a0ed9fea07677562256629e53522caedf74bb22fc9b994a6050200293a64736f6c634300081c0033","linkReferences":{}},"methodIdentifiers":{"MIN_GAME_DURATION()":"115e33ae","depositEggToVault(uint256)":"64a891c8","eggCounter()":"1f50b718","eggFindThreshold()":"d26bbe0e","eggNFT()":"1f8d442a","eggVault()":"47c55311","eggsFound(address)":"cb823d06","endGame()":"6cbc2ded","endTime()":"3197cbb6","gameActive()":"f020044f","getGameStatus()":"382396ee","getTimeRemaining()":"dac6270d","owner()":"8da5cb5b","renounceOwnership()":"715018a6","searchForEgg()":"9e1b83b1","setEggFindThreshold(uint256)":"9dc1f8d8","startGame(uint256)":"e5ed1d59","startTime()":"78e97925","transferOwnership(address)":"f2fde38b"},"id":16}