{"abi":[{"type":"constructor","inputs":[],"stateMutability":"nonpayable"},{"type":"function","name":"depositEgg","inputs":[{"name":"tokenId","type":"uint256","internalType":"uint256"},{"name":"depositor","type":"address","internalType":"address"}],"outputs":[],"stateMutability":"nonpayable"},{"type":"function","name":"eggDepositors","inputs":[{"name":"","type":"uint256","internalType":"uint256"}],"outputs":[{"name":"","type":"address","internalType":"address"}],"stateMutability":"view"},{"type":"function","name":"eggNFT","inputs":[],"outputs":[{"name":"","type":"address","internalType":"contract EggstravaganzaNFT"}],"stateMutability":"view"},{"type":"function","name":"isEggDeposited","inputs":[{"name":"tokenId","type":"uint256","internalType":"uint256"}],"outputs":[{"name":"","type":"bool","internalType":"bool"}],"stateMutability":"view"},{"type":"function","name":"owner","inputs":[],"outputs":[{"name":"","type":"address","internalType":"address"}],"stateMutability":"view"},{"type":"function","name":"renounceOwnership","inputs":[],"outputs":[],"stateMutability":"nonpayable"},{"type":"function","name":"setEggNFT","inputs":[{"name":"_eggNFTAddress","type":"address","internalType":"address"}],"outputs":[],"stateMutability":"nonpayable"},{"type":"function","name":"storedEggs","inputs":[{"name":"","type":"uint256","internalType":"uint256"}],"outputs":[{"name":"","type":"bool","internalType":"bool"}],"stateMutability":"view"},{"type":"function","name":"transferOwnership","inputs":[{"name":"newOwner","type":"address","internalType":"address"}],"outputs":[],"stateMutability":"nonpayable"},{"type":"function","name":"withdrawEgg","inputs":[{"name":"tokenId","type":"uint256","internalType":"uint256"}],"outputs":[],"stateMutability":"nonpayable"},{"type":"event","name":"EggDeposited","inputs":[{"name":"depositor","type":"address","indexed":true,"internalType":"address"},{"name":"tokenId","type":"uint256","indexed":false,"internalType":"uint256"}],"anonymous":false},{"type":"event","name":"EggWithdrawn","inputs":[{"name":"withdrawer","type":"address","indexed":true,"internalType":"address"},{"name":"tokenId","type":"uint256","indexed":false,"internalType":"uint256"}],"anonymous":false},{"type":"event","name":"OwnershipTransferred","inputs":[{"name":"previousOwner","type":"address","indexed":true,"internalType":"address"},{"name":"newOwner","type":"address","indexed":true,"internalType":"address"}],"anonymous":false},{"type":"error","name":"OwnableInvalidOwner","inputs":[{"name":"owner","type":"address","internalType":"address"}]},{"type":"error","name":"OwnableUnauthorizedAccount","inputs":[{"name":"account","type":"address","internalType":"address"}]}],"bytecode":{"object":"0x6080604052348015600e575f5ffd5b503380603357604051631e4fbdf760e01b81525f600482015260240160405180910390fd5b603a81603f565b50608e565b5f80546001600160a01b038381166001600160a01b0319831681178455604051919092169283917f8be0079c531659141344cd1fd0a4f28419497f9722a3daafe3b4186f6b6457e09190a35050565b6106ce8061009b5f395ff3fe608060405234801561000f575f5ffd5b506004361061009b575f3560e01c8063915b4fcb11610063578063915b4fcb1461012e57806396c7ac05146101415780639872c7f314610154578063e9aaa2f61461017c578063f2fde38b1461019e575f5ffd5b80631f8d442a1461009f5780634315e387146100cf57806355021e9a146100e4578063715018a6146101165780638da5cb5b1461011e575b5f5ffd5b6001546100b2906001600160a01b031681565b6040516001600160a01b0390911681526020015b60405180910390f35b6100e26100dd366004610616565b6101b1565b005b6101066100f2366004610638565b5f9081526002602052604090205460ff1690565b60405190151581526020016100c6565b6100e261022c565b5f546001600160a01b03166100b2565b6100e261013c366004610638565b61023f565b6100e261014f36600461064f565b6103bf565b6100b2610162366004610638565b60036020525f90815260409020546001600160a01b031681565b61010661018a366004610638565b60026020525f908152604090205460ff1681565b6100e26101ac366004610616565b61054a565b6101b9610587565b6001600160a01b03811661020a5760405162461bcd60e51b8152602060048201526013602482015272496e76616c6964204e4654206164647265737360681b60448201526064015b60405180910390fd5b600180546001600160a01b0319166001600160a01b0392909216919091179055565b610234610587565b61023d5f6105b3565b565b5f8181526002602052604090205460ff1661028f5760405162461bcd60e51b815260206004820152601060248201526f1159d9c81b9bdd081a5b881d985d5b1d60821b6044820152606401610201565b5f818152600360205260409020546001600160a01b031633146102f45760405162461bcd60e51b815260206004820152601a60248201527f4e6f7420746865206f726967696e616c206465706f7369746f720000000000006044820152606401610201565b5f818152600260209081526040808320805460ff1916905560039091529081902080546001600160a01b031916905560015490516323b872dd60e01b8152306004820152336024820152604481018390526001600160a01b03909116906323b872dd906064015f604051808303815f87803b158015610371575f5ffd5b505af1158015610383573d5f5f3e3d5ffd5b50506040518381523392507f33501f427695fb4855c8827a17adcd669fedefd4c6dece0923a37c0c705de0b3915060200160405180910390a250565b6001546040516331a9108f60e11b81526004810184905230916001600160a01b031690636352211e90602401602060405180830381865afa158015610406573d5f5f3e3d5ffd5b505050506040513d601f19601f8201168201806040525081019061042a919061067d565b6001600160a01b0316146104805760405162461bcd60e51b815260206004820152601c60248201527f4e4654206e6f74207472616e7366657272656420746f207661756c74000000006044820152606401610201565b5f8281526002602052604090205460ff16156104d65760405162461bcd60e51b81526020600482015260156024820152741159d9c8185b1c9958591e4819195c1bdcda5d1959605a1b6044820152606401610201565b5f828152600260209081526040808320805460ff19166001179055600382529182902080546001600160a01b0385166001600160a01b0319909116811790915591518481527fd1c90e69717f9bc80d2269b7114c3441cc05a234b03c608125ce500bd182433b910160405180910390a25050565b610552610587565b6001600160a01b03811661057b57604051631e4fbdf760e01b81525f6004820152602401610201565b610584816105b3565b50565b5f546001600160a01b0316331461023d5760405163118cdaa760e01b8152336004820152602401610201565b5f80546001600160a01b038381166001600160a01b0319831681178455604051919092169283917f8be0079c531659141344cd1fd0a4f28419497f9722a3daafe3b4186f6b6457e09190a35050565b6001600160a01b0381168114610584575f5ffd5b5f60208284031215610626575f5ffd5b813561063181610602565b9392505050565b5f60208284031215610648575f5ffd5b5035919050565b5f5f60408385031215610660575f5ffd5b82359150602083013561067281610602565b809150509250929050565b5f6020828403121561068d575f5ffd5b81516106318161060256fea264697066735822122058a5f262dd8cf8d3a479886e18db8b435e45159c2e6133e0b89f090888c7fc1864736f6c634300081c0033","linkReferences":{}},"methodIdentifiers":{"depositEgg(uint256,address)":"96c7ac05","eggDepositors(uint256)":"9872c7f3","eggNFT()":"1f8d442a","isEggDeposited(uint256)":"55021e9a","owner()":"8da5cb5b","renounceOwnership()":"715018a6","setEggNFT(address)":"4315e387","storedEggs(uint256)":"e9aaa2f6","transferOwnership(address)":"f2fde38b","withdrawEgg(uint256)":"915b4fcb"},"id":17}