{"abi":[{"type":"constructor","inputs":[{"name":"_name","type":"string","internalType":"string"},{"name":"_symbol","type":"string","internalType":"string"}],"stateMutability":"nonpayable"},{"type":"function","name":"approve","inputs":[{"name":"to","type":"address","internalType":"address"},{"name":"tokenId","type":"uint256","internalType":"uint256"}],"outputs":[],"stateMutability":"nonpayable"},{"type":"function","name":"balanceOf","inputs":[{"name":"owner","type":"address","internalType":"address"}],"outputs":[{"name":"","type":"uint256","internalType":"uint256"}],"stateMutability":"view"},{"type":"function","name":"gameContract","inputs":[],"outputs":[{"name":"","type":"address","internalType":"address"}],"stateMutability":"view"},{"type":"function","name":"getApproved","inputs":[{"name":"tokenId","type":"uint256","internalType":"uint256"}],"outputs":[{"name":"","type":"address","internalType":"address"}],"stateMutability":"view"},{"type":"function","name":"isApprovedForAll","inputs":[{"name":"owner","type":"address","internalType":"address"},{"name":"operator","type":"address","internalType":"address"}],"outputs":[{"name":"","type":"bool","internalType":"bool"}],"stateMutability":"view"},{"type":"function","name":"mintEgg","inputs":[{"name":"to","type":"address","internalType":"address"},{"name":"tokenId","type":"uint256","internalType":"uint256"}],"outputs":[{"name":"","type":"bool","internalType":"bool"}],"stateMutability":"nonpayable"},{"type":"function","name":"name","inputs":[],"outputs":[{"name":"","type":"string","internalType":"string"}],"stateMutability":"view"},{"type":"function","name":"owner","inputs":[],"outputs":[{"name":"","type":"address","internalType":"address"}],"stateMutability":"view"},{"type":"function","name":"ownerOf","inputs":[{"name":"tokenId","type":"uint256","internalType":"uint256"}],"outputs":[{"name":"","type":"address","internalType":"address"}],"stateMutability":"view"},{"type":"function","name":"renounceOwnership","inputs":[],"outputs":[],"stateMutability":"nonpayable"},{"type":"function","name":"safeTransferFrom","inputs":[{"name":"from","type":"address","internalType":"address"},{"name":"to","type":"address","internalType":"address"},{"name":"tokenId","type":"uint256","internalType":"uint256"}],"outputs":[],"stateMutability":"nonpayable"},{"type":"function","name":"safeTransferFrom","inputs":[{"name":"from","type":"address","internalType":"address"},{"name":"to","type":"address","internalType":"address"},{"name":"tokenId","type":"uint256","internalType":"uint256"},{"name":"data","type":"bytes","internalType":"bytes"}],"outputs":[],"stateMutability":"nonpayable"},{"type":"function","name":"setApprovalForAll","inputs":[{"name":"operator","type":"address","internalType":"address"},{"name":"approved","type":"bool","internalType":"bool"}],"outputs":[],"stateMutability":"nonpayable"},{"type":"function","name":"setGameContract","inputs":[{"name":"_gameContract","type":"address","internalType":"address"}],"outputs":[],"stateMutability":"nonpayable"},{"type":"function","name":"supportsInterface","inputs":[{"name":"interfaceId","type":"bytes4","internalType":"bytes4"}],"outputs":[{"name":"","type":"bool","internalType":"bool"}],"stateMutability":"view"},{"type":"function","name":"symbol","inputs":[],"outputs":[{"name":"","type":"string","internalType":"string"}],"stateMutability":"view"},{"type":"function","name":"tokenURI","inputs":[{"name":"tokenId","type":"uint256","internalType":"uint256"}],"outputs":[{"name":"","type":"string","internalType":"string"}],"stateMutability":"view"},{"type":"function","name":"totalSupply","inputs":[],"outputs":[{"name":"","type":"uint256","internalType":"uint256"}],"stateMutability":"view"},{"type":"function","name":"transferFrom","inputs":[{"name":"from","type":"address","internalType":"address"},{"name":"to","type":"address","internalType":"address"},{"name":"tokenId","type":"uint256","internalType":"uint256"}],"outputs":[],"stateMutability":"nonpayable"},{"type":"function","name":"transferOwnership","inputs":[{"name":"newOwner","type":"address","internalType":"address"}],"outputs":[],"stateMutability":"nonpayable"},{"type":"event","name":"Approval","inputs":[{"name":"owner","type":"address","indexed":true,"internalType":"address"},{"name":"approved","type":"address","indexed":true,"internalType":"address"},{"name":"tokenId","type":"uint256","indexed":true,"internalType":"uint256"}],"anonymous":false},{"type":"event","name":"ApprovalForAll","inputs":[{"name":"owner","type":"address","indexed":true,"internalType":"address"},{"name":"operator","type":"address","indexed":true,"internalType":"address"},{"name":"approved","type":"bool","indexed":false,"internalType":"bool"}],"anonymous":false},{"type":"event","name":"OwnershipTransferred","inputs":[{"name":"previousOwner","type":"address","indexed":true,"internalType":"address"},{"name":"newOwner","type":"address","indexed":true,"internalType":"address"}],"anonymous":false},{"type":"event","name":"Transfer","inputs":[{"name":"from","type":"address","indexed":true,"internalType":"address"},{"name":"to","type":"address","indexed":true,"internalType":"address"},{"name":"tokenId","type":"uint256","indexed":true,"internalType":"uint256"}],"anonymous":false},{"type":"error","name":"ERC721IncorrectOwner","inputs":[{"name":"sender","type":"address","internalType":"address"},{"name":"tokenId","type":"uint256","internalType":"uint256"},{"name":"owner","type":"address","internalType":"address"}]},{"type":"error","name":"ERC721InsufficientApproval","inputs":[{"name":"operator","type":"address","internalType":"address"},{"name":"tokenId","type":"uint256","internalType":"uint256"}]},{"type":"error","name":"ERC721InvalidApprover","inputs":[{"name":"approver","type":"address","internalType":"address"}]},{"type":"error","name":"ERC721InvalidOperator","inputs":[{"name":"operator","type":"address","internalType":"address"}]},{"type":"error","name":"ERC721InvalidOwner","inputs":[{"name":"owner","type":"address","internalType":"address"}]},{"type":"error","name":"ERC721InvalidReceiver","inputs":[{"name":"receiver","type":"address","internalType":"address"}]},{"type":"error","name":"ERC721InvalidSender","inputs":[{"name":"sender","type":"address","internalType":"address"}]},{"type":"error","name":"ERC721NonexistentToken","inputs":[{"name":"tokenId","type":"uint256","internalType":"uint256"}]},{"type":"error","name":"OwnableInvalidOwner","inputs":[{"name":"owner","type":"address","internalType":"address"}]},{"type":"error","name":"OwnableUnauthorizedAccount","inputs":[{"name":"account","type":"address","internalType":"address"}]}],"bytecode":{"object":"0x608060405234801561000f575f5ffd5b506040516114b03803806114b083398101604081905261002e91610178565b3382825f61003c8382610261565b5060016100498282610261565b5050506001600160a01b03811661007957604051631e4fbdf760e01b81525f600482015260240160405180910390fd5b6100828161008a565b50505061031b565b600680546001600160a01b038381166001600160a01b0319831681179093556040519116919082907f8be0079c531659141344cd1fd0a4f28419497f9722a3daafe3b4186f6b6457e0905f90a35050565b634e487b7160e01b5f52604160045260245ffd5b5f82601f8301126100fe575f5ffd5b81516001600160401b03811115610117576101176100db565b604051601f8201601f19908116603f011681016001600160401b0381118282101715610145576101456100db565b60405281815283820160200185101561015c575f5ffd5b8160208501602083015e5f918101602001919091529392505050565b5f5f60408385031215610189575f5ffd5b82516001600160401b0381111561019e575f5ffd5b6101aa858286016100ef565b602085015190935090506001600160401b038111156101c7575f5ffd5b6101d3858286016100ef565b9150509250929050565b600181811c908216806101f157607f821691505b60208210810361020f57634e487b7160e01b5f52602260045260245ffd5b50919050565b601f82111561025c57805f5260205f20601f840160051c8101602085101561023a5750805b601f840160051c820191505b81811015610259575f8155600101610246565b50505b505050565b81516001600160401b0381111561027a5761027a6100db565b61028e8161028884546101dd565b84610215565b6020601f8211600181146102c0575f83156102a95750848201515b5f19600385901b1c1916600184901b178455610259565b5f84815260208120601f198516915b828110156102ef57878501518255602094850194600190920191016102cf565b508482101561030c57868401515f19600387901b60f8161c191681555b50505050600190811b01905550565b611188806103285f395ff3fe608060405234801561000f575f5ffd5b5060043610610127575f3560e01c8063715018a6116100a9578063b88d4fde1161006e578063b88d4fde14610265578063c87b56dd14610278578063d3f330091461028b578063e985e9c51461029e578063f2fde38b146102b1575f5ffd5b8063715018a61461021e57806375752291146102265780638da5cb5b1461023957806395d89b411461024a578063a22cb46514610252575f5ffd5b806323b872dd116100ef57806323b872dd146101bf578063405ebd4d146101d257806342842e0e146101e55780636352211e146101f857806370a082311461020b575f5ffd5b806301ffc9a71461012b57806306fdde0314610153578063081812fc14610168578063095ea7b31461019357806318160ddd146101a8575b5f5ffd5b61013e610139366004610e16565b6102c4565b60405190151581526020015b60405180910390f35b61015b610315565b60405161014a9190610e5f565b61017b610176366004610e71565b6103a4565b6040516001600160a01b03909116815260200161014a565b6101a66101a1366004610ea3565b6103cb565b005b6101b160085481565b60405190815260200161014a565b6101a66101cd366004610ecb565b6103da565b6101a66101e0366004610f05565b610468565b6101a66101f3366004610ecb565b6104e8565b61017b610206366004610e71565b610507565b6101b1610219366004610f05565b610511565b6101a6610556565b61013e610234366004610ea3565b610569565b6006546001600160a01b031661017b565b61015b6105e5565b6101a6610260366004610f1e565b6105f4565b6101a6610273366004610f6b565b6105ff565b61015b610286366004610e71565b610617565b60075461017b906001600160a01b031681565b61013e6102ac366004611048565b610688565b6101a66102bf366004610f05565b6106b5565b5f6001600160e01b031982166380ac58cd60e01b14806102f457506001600160e01b03198216635b5e139f60e01b145b8061030f57506301ffc9a760e01b6001600160e01b03198316145b92915050565b60605f805461032390611079565b80601f016020809104026020016040519081016040528092919081815260200182805461034f90611079565b801561039a5780601f106103715761010080835404028352916020019161039a565b820191905f5260205f20905b81548152906001019060200180831161037d57829003601f168201915b5050505050905090565b5f6103ae826106f2565b505f828152600460205260409020546001600160a01b031661030f565b6103d682823361072a565b5050565b6001600160a01b03821661040857604051633250574960e11b81525f60048201526024015b60405180910390fd5b5f610414838333610737565b9050836001600160a01b0316816001600160a01b031614610462576040516364283d7b60e01b81526001600160a01b03808616600483015260248201849052821660448201526064016103ff565b50505050565b610470610829565b6001600160a01b0381166104c65760405162461bcd60e51b815260206004820152601d60248201527f496e76616c69642067616d6520636f6e7472616374206164647265737300000060448201526064016103ff565b600780546001600160a01b0319166001600160a01b0392909216919091179055565b61050283838360405180602001604052805f8152506105ff565b505050565b5f61030f826106f2565b5f6001600160a01b03821661053b576040516322718ad960e21b81525f60048201526024016103ff565b506001600160a01b03165f9081526003602052604090205490565b61055e610829565b6105675f610856565b565b6007545f906001600160a01b031633146105bb5760405162461bcd60e51b81526020600482015260136024820152722ab730baba3437b934bd32b21036b4b73a32b960691b60448201526064016103ff565b6105c583836108a7565b600160085f8282546105d791906110b1565b909155506001949350505050565b60606001805461032390611079565b6103d6338383610908565b61060a8484846103da565b61046233858585856109a6565b6060610622826106f2565b505f61063860408051602081019091525f815290565b90505f8151116106565760405180602001604052805f815250610681565b8061066084610ace565b6040516020016106719291906110e7565b6040516020818303038152906040525b9392505050565b6001600160a01b039182165f90815260056020908152604080832093909416825291909152205460ff1690565b6106bd610829565b6001600160a01b0381166106e657604051631e4fbdf760e01b81525f60048201526024016103ff565b6106ef81610856565b50565b5f818152600260205260408120546001600160a01b03168061030f57604051637e27328960e01b8152600481018490526024016103ff565b6105028383836001610b5e565b5f828152600260205260408120546001600160a01b039081169083161561076357610763818486610c62565b6001600160a01b0381161561079d5761077e5f855f5f610b5e565b6001600160a01b0381165f90815260036020526040902080545f190190555b6001600160a01b038516156107cb576001600160a01b0385165f908152600360205260409020805460010190555b5f8481526002602052604080822080546001600160a01b0319166001600160a01b0389811691821790925591518793918516917fddf252ad1be2c89b69c2b068fc378daa952ba7f163c4a11628f55a4df523b3ef91a4949350505050565b6006546001600160a01b031633146105675760405163118cdaa760e01b81523360048201526024016103ff565b600680546001600160a01b038381166001600160a01b0319831681179093556040519116919082907f8be0079c531659141344cd1fd0a4f28419497f9722a3daafe3b4186f6b6457e0905f90a35050565b6001600160a01b0382166108d057604051633250574960e11b81525f60048201526024016103ff565b5f6108dc83835f610737565b90506001600160a01b03811615610502576040516339e3563760e11b81525f60048201526024016103ff565b6001600160a01b03821661093a57604051630b61174360e31b81526001600160a01b03831660048201526024016103ff565b6001600160a01b038381165f81815260056020908152604080832094871680845294825291829020805460ff191686151590811790915591519182527f17307eab39ab6107e8899845ad3d59bd9653f200f220920489ca2b5937696c31910160405180910390a3505050565b6001600160a01b0383163b15610ac757604051630a85bd0160e11b81526001600160a01b0384169063150b7a02906109e89088908890879087906004016110fb565b6020604051808303815f875af1925050508015610a22575060408051601f3d908101601f19168201909252610a1f91810190611137565b60015b610a89573d808015610a4f576040519150601f19603f3d011682016040523d82523d5f602084013e610a54565b606091505b5080515f03610a8157604051633250574960e11b81526001600160a01b03851660048201526024016103ff565b805181602001fd5b6001600160e01b03198116630a85bd0160e11b14610ac557604051633250574960e11b81526001600160a01b03851660048201526024016103ff565b505b5050505050565b60605f610ada83610cc6565b60010190505f8167ffffffffffffffff811115610af957610af9610f57565b6040519080825280601f01601f191660200182016040528015610b23576020820181803683370190505b5090508181016020015b5f19016f181899199a1a9b1b9c1cb0b131b232b360811b600a86061a8153600a8504945084610b2d57509392505050565b8080610b7257506001600160a01b03821615155b15610c33575f610b81846106f2565b90506001600160a01b03831615801590610bad5750826001600160a01b0316816001600160a01b031614155b8015610bc05750610bbe8184610688565b155b15610be95760405163a9fbf51f60e01b81526001600160a01b03841660048201526024016103ff565b8115610c315783856001600160a01b0316826001600160a01b03167f8c5be1e5ebec7d5bd14f71427d1e84f3dd0314c0f7b2291e5b200ac8c7c3b92560405160405180910390a45b505b50505f90815260046020526040902080546001600160a01b0319166001600160a01b0392909216919091179055565b610c6d838383610d9d565b610502576001600160a01b038316610c9b57604051637e27328960e01b8152600481018290526024016103ff565b60405163177e802f60e01b81526001600160a01b0383166004820152602481018290526044016103ff565b5f8072184f03e93ff9f4daa797ed6e38ed64bf6a1f0160401b8310610d045772184f03e93ff9f4daa797ed6e38ed64bf6a1f0160401b830492506040015b6d04ee2d6d415b85acef81000000008310610d30576d04ee2d6d415b85acef8100000000830492506020015b662386f26fc100008310610d4e57662386f26fc10000830492506010015b6305f5e1008310610d66576305f5e100830492506008015b6127108310610d7a57612710830492506004015b60648310610d8c576064830492506002015b600a831061030f5760010192915050565b5f6001600160a01b03831615801590610df95750826001600160a01b0316846001600160a01b03161480610dd65750610dd68484610688565b80610df957505f828152600460205260409020546001600160a01b038481169116145b949350505050565b6001600160e01b0319811681146106ef575f5ffd5b5f60208284031215610e26575f5ffd5b813561068181610e01565b5f81518084528060208401602086015e5f602082860101526020601f19601f83011685010191505092915050565b602081525f6106816020830184610e31565b5f60208284031215610e81575f5ffd5b5035919050565b80356001600160a01b0381168114610e9e575f5ffd5b919050565b5f5f60408385031215610eb4575f5ffd5b610ebd83610e88565b946020939093013593505050565b5f5f5f60608486031215610edd575f5ffd5b610ee684610e88565b9250610ef460208501610e88565b929592945050506040919091013590565b5f60208284031215610f15575f5ffd5b61068182610e88565b5f5f60408385031215610f2f575f5ffd5b610f3883610e88565b915060208301358015158114610f4c575f5ffd5b809150509250929050565b634e487b7160e01b5f52604160045260245ffd5b5f5f5f5f60808587031215610f7e575f5ffd5b610f8785610e88565b9350610f9560208601610e88565b925060408501359150606085013567ffffffffffffffff811115610fb7575f5ffd5b8501601f81018713610fc7575f5ffd5b803567ffffffffffffffff811115610fe157610fe1610f57565b604051601f8201601f19908116603f0116810167ffffffffffffffff8111828210171561101057611010610f57565b604052818152828201602001891015611027575f5ffd5b816020840160208301375f6020838301015280935050505092959194509250565b5f5f60408385031215611059575f5ffd5b61106283610e88565b915061107060208401610e88565b90509250929050565b600181811c9082168061108d57607f821691505b6020821081036110ab57634e487b7160e01b5f52602260045260245ffd5b50919050565b8082018082111561030f57634e487b7160e01b5f52601160045260245ffd5b5f81518060208401855e5f93019283525090919050565b5f610df96110f583866110d0565b846110d0565b6001600160a01b03858116825284166020820152604081018390526080606082018190525f9061112d90830184610e31565b9695505050505050565b5f60208284031215611147575f5ffd5b815161068181610e0156fea2646970667358221220f4cd0972b1041c1c3604ed4201410b90c75c5ba40927e4c706037fce7214dba264736f6c634300081c0033","linkReferences":{}},"methodIdentifiers":{"approve(address,uint256)":"095ea7b3","balanceOf(address)":"70a08231","gameContract()":"d3f33009","getApproved(uint256)":"081812fc","isApprovedForAll(address,address)":"e985e9c5","mintEgg(address,uint256)":"75752291","name()":"06fdde03","owner()":"8da5cb5b","ownerOf(uint256)":"6352211e","renounceOwnership()":"715018a6","safeTransferFrom(address,address,uint256)":"42842e0e","safeTransferFrom(address,address,uint256,bytes)":"b88d4fde","setApprovalForAll(address,bool)":"a22cb465","setGameContract(address)":"405ebd4d","supportsInterface(bytes4)":"01ffc9a7","symbol()":"95d89b41","tokenURI(uint256)":"c87b56dd","totalSupply()":"18160ddd","transferFrom(address,address,uint256)":"23b872dd","transferOwnership(address)":"f2fde38b"},"id":18}